{"abi":[{"type":"constructor","inputs":[{"name":"priceFeed","type":"address","internalType":"address"}],"stateMutability":"nonpayable"},{"type":"fallback","stateMutability":"payable"},{"type":"receive","stateMutability":"payable"},{"type":"function","name":"MINIMUM_USD","inputs":[],"outputs":[{"name":"","type":"uint256","internalType":"uint256"}],"stateMutability":"view"},{"type":"function","name":"addressToAmountFunded","inputs":[{"name":"","type":"address","internalType":"address"}],"outputs":[{"name":"","type":"uint256","internalType":"uint256"}],"stateMutability":"view"},{"type":"function","name":"fund","inputs":[],"outputs":[],"stateMutability":"payable"},{"type":"function","name":"funders","inputs":[{"name":"","type":"uint256","internalType":"uint256"}],"outputs":[{"name":"","type":"address","internalType":"address"}],"stateMutability":"view"},{"type":"function","name":"getVersion","inputs":[],"outputs":[{"name":"","type":"uint256","internalType":"uint256"}],"stateMutability":"view"},{"type":"function","name":"i_owner","inputs":[],"outputs":[{"name":"","type":"address","internalType":"address"}],"stateMutability":"view"},{"type":"function","name":"withdraw","inputs":[],"outputs":[],"stateMutability":"nonpayable"},{"type":"error","name":"NotOwner","inputs":[]}],"bytecode":{"object":"0x6080604052348015600f57600080fd5b5060405161077a38038061077a833981016040819052602c91605e565b60028054336001600160a01b031991821617909155600380549091166001600160a01b0392909216919091179055608c565b600060208284031215606f57600080fd5b81516001600160a01b0381168114608557600080fd5b9392505050565b6106df8061009b6000396000f3fe6080604052600436106100745760003560e01c80636b69a5921161004e5780636b69a592146100f5578063b60d428814610083578063dba6335f14610111578063dc0d3dff1461014957610083565b80630d8e6e2c1461008b5780633ccfd60b146100b35780633e47d6f3146100c857610083565b3661008357610081610169565b005b610081610169565b34801561009757600080fd5b506100a0610244565b6040519081526020015b60405180910390f35b3480156100bf57600080fd5b506100816102b7565b3480156100d457600080fd5b506100a06100e3366004610535565b60006020819052908152604090205481565b34801561010157600080fd5b506100a0674563918244f4000081565b34801561011d57600080fd5b50600254610131906001600160a01b031681565b6040516001600160a01b0390911681526020016100aa565b34801561015557600080fd5b5061013161016436600461055e565b6103d6565b600354674563918244f400009061018a9034906001600160a01b0316610400565b10156101dd5760405162461bcd60e51b815260206004820152601b60248201527f596f75206e65656420746f207370656e64206d6f72652045544821000000000060448201526064015b60405180910390fd5b33600090815260208190526040812080543492906101fc90849061058d565b90915550506001805480820182556000919091527fb10e2d527612073b26eecdfd717e6a320cf44b4afac2b0732d9fcbe2b7fa0cf60180546001600160a01b03191633179055565b6003546040805163054fd4d560e41b815290516000926001600160a01b0316916354fd4d509160048083019260209291908290030181865afa15801561028e573d6000803e3d6000fd5b505050506040513d601f19601f820116820180604052508101906102b291906105a0565b905090565b6002546001600160a01b031633146102e2576040516330cd747160e01b815260040160405180910390fd5b60005b60015481101561032e57600060018281548110610304576103046105b9565b60009182526020808320909101546001600160a01b031682528190526040812055506001016102e5565b50604080516000815260208101918290525161034c916001916104bb565b50604051600090339047908381818185875af1925050503d806000811461038f576040519150601f19603f3d011682016040523d82523d6000602084013e610394565b606091505b50509050806103d35760405162461bcd60e51b815260206004820152600b60248201526a10d85b1b0819985a5b195960aa1b60448201526064016101d4565b50565b600181815481106103e657600080fd5b6000918252602090912001546001600160a01b0316905081565b60008061040c83610438565b90506000670de0b6b3a764000061042386846105cf565b61042d91906105e6565b925050505b92915050565b600080826001600160a01b031663feaf968c6040518163ffffffff1660e01b815260040160a060405180830381865afa158015610479573d6000803e3d6000fd5b505050506040513d601f19601f8201168201806040525081019061049d9190610627565b505050915050806402540be4006104b49190610679565b9392505050565b828054828255906000526020600020908101928215610510579160200282015b8281111561051057825182546001600160a01b0319166001600160a01b039091161782556020909201916001909101906104db565b5061051c929150610520565b5090565b5b8082111561051c5760008155600101610521565b60006020828403121561054757600080fd5b81356001600160a01b03811681146104b457600080fd5b60006020828403121561057057600080fd5b5035919050565b634e487b7160e01b600052601160045260246000fd5b8082018082111561043257610432610577565b6000602082840312156105b257600080fd5b5051919050565b634e487b7160e01b600052603260045260246000fd5b808202811582820484141761043257610432610577565b60008261060357634e487b7160e01b600052601260045260246000fd5b500490565b805169ffffffffffffffffffff8116811461062257600080fd5b919050565b600080600080600060a0868803121561063f57600080fd5b61064886610608565b6020870151604088015160608901519297509095509350915061066d60808701610608565b90509295509295909350565b80820260008212600160ff1b8414161561069557610695610577565b81810583148215176104325761043261057756fea2646970667358221220ceea568929d02cb29eb7499e1d246b802ebc264e72bab0a15676233ca9dfa4b264736f6c634300081a0033","linkReferences":{}},"methodIdentifiers":{"MINIMUM_USD()":"6b69a592","addressToAmountFunded(address)":"3e47d6f3","fund()":"b60d4288","funders(uint256)":"dc0d3dff","getVersion()":"0d8e6e2c","i_owner()":"dba6335f","withdraw()":"3ccfd60b"},"id":26}